:020000040800F2
:100000002804002039010008850100088901000842
:100010008D01000891010008950100080000000012
:10002000000000000000000000000000990100082E
:100030009D01000800000000A1010008A5010008C2
:1000400035010008350100083501000835010008B8
:1000500035010008350100083501000835010008A8
:100060003501000835010008350100083501000898
:100070003501000835010008350100083501000888
:100080003501000835010008350100083501000878
:100090003501000835010008350100083501000868
:1000A0003501000835010008350100083501000858
:1000B0003501000835010008350100083501000848
:1000C0003501000835010008350100083501000838
:1000D00035010008E5050008350100083501000874
:1000E0003501000835010008350100083501000818
:1000F0003501000835010008350100083501000808
:1001000035010008350100083501000835010008F7
:1001100035010008350100083501000835010008E7
:1001200035010008350100083501000835010008D7
:040130005FF808F17B
:10013400FEE700BF08B50D480D4B984207D2C243F5
:100144001A4422F0030204320A4901F029F90A4848
:100154000A494FF000028842B8BF40F8042BFADB8A
:1001640000F020F8BDE8084001F0B4B90000002018
:1001740028000020601500083C0400200805002029
:10018400704700BFFEE700BFFEE700BFFEE700BF09
:10019400FEE700BF704700BF704700BF704700BF55
:1001A400704700BF364B37481A68002142F00102FD
:1001B4001A6099601A6822F0847222F480321A60FC
:1001C40058601A6882B022F480221A60D9600091C3
:1001D40001911A6842F480321A601A4603E0009BC7
:1001E400B3F5A04F09D0136803F400330193009BC7
:1001F40001330093019B002BF1D0214B1B6813F4B6
:10020400003318BF01230193019B012B05D01E4B22
:100214004FF000629A6002B07047194B1B491A6C88
:100224001B4842F080521A640A6842F440420A6051
:100234009A689A609A6842F400429A609A6842F412
:10024400A0529A6058601A6842F080721A601A4686
:1002540011680B4B8901FBD50E4A40F20571116000
:100264009A6822F003029A609A6842F002029A6045
:100274001A46936803F00C03082BFAD1C7E700BFB2
:10028400003802401030002400ED00E0007000400F
:1002940008544007003C02401848836803F00C03EC
:1002A400042B28D0082B09D0154B144A1549926801
:1002B400C2F303128A5CD3400B6170474368416800
:1002C40013F4800F436818BF0F4801F03F020CBFBE
:1002D4000B49B0FBF2F1C3F3881308BFB1FBF2F191
:1002E40001FB03F2054B5B68C3F3014301335B007D
:1002F400B2FBF3F3D9E7044BD7E700BF0038024061
:100304000024F4000000002000127A00F0B50F4C25
:1003140083B00121202000F009FD4FF480750322F1
:10032400022320466946012700268DF805208DF812
:10033400073000958DF804708DF8066000F09AFA85
:100344002946204600F022FB03B0F0BD0014024011
:1003540070B5012182B0112000F0E8FC01250022D3
:10036400694603231C260A488DF804208DF80530BD
:1003740000968DF8075000F07DFA0223694605487F
:1003840000958DF8073000F075FA02B070BD00BF1B
:10039400001002400000024010B5A0B1324B7B4473
:1003A40001221A7010212E4800F0DAFAC0B92F4B3E
:1003B4002B487B44002210211A7000F0D1FA002847
:1003C40038D1012010BD2A4B7B441B78002BE9D186
:1003D4001021234800F0C4FA012814D0002010BDD5
:1003E40008211F4800F0BCFA0028E0D004211C4872
:1003F40000F0B6FA0028DAD001211A4800F0B0FA69
:100404000128E5D1D3E70821154800F0A9FA01280D
:10041400E4D10421124800F0A3FA01280446DDD1F6
:100424000146104800F09CFA0028D7D1114B7B44B8
:100434001C7010BD08210A4800F092FA08B9022085
:1004440010BD0421064800F08BFA08B9032010BD42
:100454000121044800F084FA0128BFD1042010BD12
:1004640000100240000002406EFCFF175AFCFF1708
:1004740044FCFF17DEFBFF1770B50F4C82B001215F
:10048400202000F053FC4FF4C065012303222046D2
:10049400694600268DF804308DF807308DF8052064
:1004A40000958DF8066000F0E5F92946204600F035
:1004B4006BFA02B070BD00BF0014024070B50E4C60
:1004C40082B005460121202000F030FC00260123E3
:1004D4000322204669468DF804308DF807308DF8E4
:1004E400052000958DF8066000F0C4F929462046E1
:1004F40000F04AFA02B070BD0014024001460148FF
:1005040000F044BA001402400146014800F03CBA2D
:100514000014024010B50446FFF7F0FF2046BDE882
:100524001040FFF7F1BF00BF0146014800F022BAB6
:1005340000140240F0B5012189B0274D274E07462B
:10054400084600F0F3FB0121102000F01FFC2846B0
:100554000722092100F028FA284607220A2100F080
:1005640023FA00244FF4C0620223284602A901257D
:1005740002928DF80C308DF80D308DF80E408DF808
:100584000F5000F077F90C23304604A9ADF81A3067
:100594000497ADF81440ADF81640ADF81840ADF826
:1005A4001C4000F047FD2946304600F0C9FD2A46AC
:1005B400304640F2255100F09DFE0323252201A878
:1005C4008DF807508DF804208DF805308DF806302D
:1005D40000F048F809B0F0BD0000024000100140EE
:1005E40038B5184C164840F225517C4400F0AAFE58
:1005F40000B938BD124800F0DBFD134BE2581388F4
:100604001D04C0B2F5D459040ED40D2814D00F49DA
:10061400C3F30D05013361589BB2C72B48551380B2
:10062400E7D90023138038BD0A28FAD16FEA43437F
:100634006FEA5343138038BD43F48043138038BDBD
:100644000010014036FEFF17000000000400000007
:1006540040F0BF60024B40F40030D860704700BFE8
:1006640000ED00E0C3785BB9037818485A092032DA
:1006740003F01F03012101FA03F340F8223070470D
:10068400134BF0B4D9684578827804780F4EC94387
:10069400C1F30221C1F10407FFB20F23BD400B4196
:1006A4001340E9B20B4304F1604202F561421B01BD
:1006B400DBB282F800330378012203F01F015B09E7
:1006C4008A4046F82320F0BC704700BF00E100E0F8
:1006D40000ED00E021F0604121F07F01014B08436F
:1006E4009860704700ED00E0044A136919B923EAE1
:1006F40000001061704718431061704700ED00E07E
:10070400044A136804280CBF43F0040323F00403D1
:100714001360704710E000E008B54B4B98422AD0B4
:100724004A4B984231D04A4B984238D0494B984270
:100734003FD0494B984246D0484B98424DD0484B05
:10074400984254D0474B98425BD0474B984262D072
:10075400464B98426BD0464B984200D008BD4FF4AC
:100764008060012100F01EFB4FF480600021BDE891
:10077400084000F017BB0120014600F013FB0120E4
:100784000021BDE8084000F00DBB0220012100F06B
:1007940009FB02200021BDE8084000F003BB04204F
:1007A400012100F0FFFA04200021BDE8084000F018
:1007B400F9BA0820012100F0F5FA08200021BDE86B
:1007C400084000F0EFBA1020012100F0EBFA1020ED
:1007D4000021BDE8084000F0E5BA2020012100F026
:1007E400E1FA20200021BDE8084000F0DBBA4020F7
:1007F400012100F0D7FA40200021BDE8084000F0B4
:10080400D1BA8020012100F0CDFA80200021BDE87A
:10081400084000F0C7BA4FF48070012100F0C2FA1A
:100824004FF480700021BDE8084000F0BBBA4FF4DB
:100834000070012100F0B6FA4FF400700021BDE809
:10084400084000F0AFBA00BF0000024000040240BC
:1008540000080240000C0240001002400014024054
:1008640000180240001C0240002002400024024004
:100874000028024000222DE9F0431346D1F800E09D
:1008840001274FF0030C04E00133102B02F10202A4
:1008940028D007FA03F404EA0E05A542F4D1D0F8EF
:1008A40000800E790CFA02F4E44304EA0808C0F864
:1008B4000080D0F8008006FA02F9013E49EA0808EF
:1008C400012EC0F800800FD9C568CE792C40C460D1
:1008D400C56806FA02F401332C43102BC46002F1FC
:1008E4000202D6D1BDE8F083D0F8089091F80580D3
:1008F4008E7904EA0909C0F80890D0F8089008FA3B
:1009040002F848EA0908C0F80880D0F8048028EA08
:1009140005054560D0F8048006FA03F5ADB245EA52
:1009240008054560D0E700BF00234FF6FF72026060
:10093400037143718371C371704700BF82B04FF478
:1009440080330193019B0B430193019BC361C161FC
:10095400019BC361C3690193C369019302B07047EA
:100964000369194214BF012000207047006980B256
:10097400704700BF4369194214BF0120002070472B
:10098400406980B2704700BF01837047418370475C
:100994000AB9418370470183704700BF41617047C2
:1009A4004369594041617047CB0800EB830001F073
:1009B400070110B48900046A0F238B4024EA03035F
:1009C4000362036A5DF8044B8A4013430362704771
:1009D4000F4B10481A68002142F0010230B41A602B
:1009E40099601A680C4D0D4C22F0A85222F4102282
:1009F4001A605D60C3F88440C3F888001A6822F462
:100A040080221A6030BCD960C3F88C10704700BFD4
:100A14000038024000300024103000240030002050
:100A2400024B00221A701870704700BF023802404F
:100A340082B000230A4A019302E0B3F5A04F08D024
:100A4400136813F4003F019B03F101030193019B1D
:100A5400F3D0034B1868C0F3404002B0704700BFA6
:100A640000380240034A136823F0F80343EAC00045
:100A74001060704700380240014B1860704700BF97
:100A840000004742064B002201281A701A7005D054
:100A9400042802D105221A707047704718707047F5
:100AA40070380240014B1860704700BF800E474207
:100AB40030B4029C064D40EA046001435B08013BEC
:100AC40041EA821242EA0340686030BC704700BFCA
:100AD40000380240014B1860704700BF6000474275
:100AE4000907034B41EA8010C3F88400704700BF34
:100AF40000380240014B1860704700BF680047424D
:100B0400120742EA0161034B41EA8010C3F88800EE
:100B1400704700BF00380240014B1860704700BFA7
:100B240070004742014B1860704700BF4C004742B9
:100B3400034A936823F0EC631943084390607047B9
:100B440000380240034A936823F07843194308436A
:100B54009060704700380240034A936823F003030F
:100B640018439060704700BF00380240024B9868F9
:100B740000F00C00704700BF00380240034A93683D
:100B840023F0F00318439060704700BF0038024020
:100B9400034A936823F4E05318439060704700BFFE
:100BA40000380240034A936823F4604343EAC000D8
:100BB400906070470038024010B4214CA36803F0E1
:100BC4000C03042B1BD0082B1CD01E4B03601C4AA7
:100BD4001D499468C4F303140C5DE34043609468B6
:100BE400C4F382240C5D23FA04F4846092685DF8F3
:100BF400044BC2F342328A5CD340C3607047134B48
:100C04000360E4E76368616813F4800F636818BFE6
:100C14000E4C01F03F020CBF0A49B4FBF2F1C3F3DE
:100C2400881308BFB1FBF2F101FB03F2044B5B68CC
:100C3400C3F3014301335B00B2FBF3F30360C6E784
:100C4400003802400024F4001800002000127A004A
:100C540000F44073B3F5407F09D108498B6820F054
:100C6400704223F4F81322F4407213438B60034A56
:100C7400136FC0F30B00184310677047003802402D
:100C8400014B1860704700BF3C0E4742014B18608F
:100C9400704700BF400E4742014B1860704700BFC9
:100CA4005C014742044AD2F88C3023F440131843C1
:100CB400C2F88C00704700BF00380240044AD2F8E2
:100CC4008C3023F440031843C2F88C00704700BFF3
:100CD40000380240044AD2F88C30013823F01F0354
:100CE4000343C2F88C30704700380240054AD2F8FA
:100CF4008C30013823F4F85343EA0023C2F88C30D3
:100D0400704700BF00380240044AD2F88C3023F404
:100D140040331843C2F88C00704700BF00380240CB
:100D2400014B1860704700BFE0114742044A136B3F
:100D340019B923EA00001063704718431063704721
:100D440000380240044A536B19B923EA0000506387
:100D5400704718435063704700380240044A936B4D
:100D640019B923EA000090637047184390637047F1
:100D740000380240044A136C19B923EA00001064D5
:100D8400704718431064704700380240044A536C9B
:100D940019B923EA0000506470471843506470473F
:100DA40000380240044A136919B923EA00001061AB
:100DB400704718431061704700380240044A536971
:100DC40019B923EA00005061704718435061704715
:100DD40000380240044A936919B923EA000090617B
:100DE400704718439061704700380240044A136A00
:100DF40019B923EA00001062704718431062704763
:100E040000380240044A536A19B923EA00005062C8
:100E1400704718435062704700380240044A136D0B
:100E240019B923EA0000106570471843106570472C
:100E340000380240044A536D19B923EA0000506592
:100E4400704718435065704700380240044A936D58
:100E540019B923EA000090657047184390657047FC
:100E640000380240044A136E19B923EA00001066E0
:100E7400704718431066704700380240044A536EA6
:100E840019B923EA0000506670471843506670474A
:100E940000380240044A136F01280CBF43F00803D2
:100EA40023F008031367704700380240044A13789C
:100EB40019B923EA00001070704718431070704786
:100EC4000D3802404309012B0BD0022B094B0CBFF8
:100ED4001A6F5A6F00F01F0322FA03F000F00100AA
:100EE4007047044B1A6800F01F0322FA03F000F065
:100EF4000100704700380240024A536F43F0807388
:100F04005367704700380240034BDB68184214BF34
:100F140001200020704700BF00380240014B1870C8
:100F2400704700BF0E38024008B53A4B984221D0B2
:100F3400394B984228D0394B984231D0384B98429B
:100F44003AD0384B984243D0374B98424CD0374B29
:100F5400984253D0364B984200D008BD4FF0004021
:100F64000121FFF743FF4FF000400021BDE8084096
:100F7400FFF73CBF10200121FFF744FF10200021A0
:100F8400BDE80840FFF73EBF4FF400300121FFF7F2
:100F94002DFF4FF400300021BDE80840FFF726BFC5
:100FA4004FF480200121FFF721FF4FF4802000211E
:100FB400BDE80840FFF71ABF4FF400200121FFF7F6
:100FC40015FF4FF400200021BDE80840FFF70EBFD5
:100FD4004FF480100121FFF709FF4FF48010002126
:100FE400BDE80840FFF702BF20200121FFF70AFFF8
:100FF40020200021BDE80840FFF704BF4FF08040E7
:101004000121FFF7F3FE4FF080400021BDE80840C6
:10101400FFF7ECBE001001400044004000480040CF
:10102400004C004000500040001401400078004093
:10103400007C0040028A8B88F0B592B2CE880F897A
:1010440004460D4622F440523243A889498922823B
:10105400A2893B4392B20B4322F4B05222F00C0219
:101064009BB21343A381A38A9BB223F4407303432B
:1010740085B0A3826846FFF79FFD1D4B9C4229D093
:1010840003F580639C4225D0029AA389A6891BB2EA
:10109400002B2B6802EB8202B4BF5B009B0002EBC7
:1010A4008202B2FBF3F0134A36B2A2FB00356D099B
:1010B4006423002E05FB13034FEA05150CDB1B010B
:1010C4003233A2FB0323C3F343132B439BB2238189
:1010D40005B0F0BD039AD8E7D9003231A2FB013143
:1010E400C1F3421242EA05039BB2238105B0F0BD6D
:1010F400001001401F85EB5100234FF416510C22C0
:10110400016042818380C38003818381704700BF73
:1011140030B40A884D888C88038AC9882A432243BC
:101124000A439BB292B223F470631343038230BC2C
:10113400704700BF0023038043808380C3807047CF
:10114400838929B923F400531B041B0C8381704742
:101154009BB243F400538381704700BF038B03F4B5
:101164007F430383038B9BB219430183704700BF02
:10117400838919B9C3F30E03838170476FEA43432C
:101184006FEA53439BB28381704700BF838A29B9B6
:1011940023F400631B041B0C838270479BB243F44B
:1011A40000638382704700BFC1F3080181807047E8
:1011B4008088C0F308007047038A23F00F031B04E0
:1011C4001B0C0382038A9BB219430182704700BF40
:1011D400838929B923F002031B041B0C8381704704
:1011E4009BB243F002038381704700BF838923F4D9
:1011F40000631B041B0C838183899BB21943818187
:10120400704700BF038A23F020031B041B0C0382D6
:10121400038A9BB219430182704700BF038A29B92C
:1012240023F480431B041B0C038270479BB243F4DA
:1012340080430382704700BF83899BB243F001035C
:1012440083817047838A29B923F008031B041B0C8C
:10125400838270479BB243F008038382704700BFC8
:10126400038BDBB20383038B9BB243EA012101832B
:10127400704700BF838A29B923F020031B041B0C89
:10128400838270479BB243F020038382704700BF80
:10129400838A29B923F010031B041B0C8382704733
:1012A4009BB243F010038382704700BF838A23F00C
:1012B40004031B041B0C8382838A9BB2194381821F
:1012C400704700BF838A29B923F002031B041B0C57
:1012D400838270479BB243F002038382704700BF4E
:1012E400838A9BB21AB923EA0101818270471943A8
:1012F4008182704710B401F01F04C1F3421101232D
:10130400012903FA04F311D002290CBF1030143060
:1013140032B902685DF8044B22EA030303607047A4
:1013240002685DF8044B1343036070470C30EFE729
:101334000388194214BF012000207047C94389B2B1
:1013440001807047C1F3421210B4012301F01F045D
:10135400012A03FA04F316D0022A0CBF028A828AF5
:1013640092B21340028892B24BB1090A01238B4016
:10137400134214BF012000205DF8044B7047184647
:101384005DF8044B7047828992B21340EAE700BFCC
:10139400090A01238B40DB439BB20380704700BFE3
:1013A400844641EA000313F003036DD1403A41D36C
:1013B40051F8043B40F8043B51F8043B40F8043B2B
:1013C40051F8043B40F8043B51F8043B40F8043B1B
:1013D40051F8043B40F8043B51F8043B40F8043B0B
:1013E40051F8043B40F8043B51F8043B40F8043BFB
:1013F40051F8043B40F8043B51F8043B40F8043BEB
:1014040051F8043B40F8043B51F8043B40F8043BDA
:1014140051F8043B40F8043B51F8043B40F8043BCA
:1014240051F8043B40F8043B51F8043B40F8043BBA
:10143400403ABDD2303211D351F8043B40F8043B5A
:1014440051F8043B40F8043B51F8043B40F8043B9A
:1014540051F8043B40F8043B103AEDD20C3205D36A
:1014640051F8043B40F8043B043AF9D2043208D062
:10147400D2071CBF11F8013B00F8013B01D30B88D4
:1014840003806046704700BF082A13D38B078DD0B2
:1014940010F003038AD0C3F10403D21ADB071CBF84
:1014A40011F8013B00F8013B80D331F8023B20F8EE
:1014B400023B7BE7043AD9D3013A11F8013B00F827
:1014C400013BF9D20B7803704B7843708B788370AF
:1014D4006046704730B54FF4007083B0FEF7EEFFFE
:1014E4004FF48060FEF7EAFFFEF710FFFEF730FFCF
:1014F4004FF400711448FFF749FA4FF4E130FFF755
:1015040019F8124B18689A889B790090ADF804205A
:101514008DF806300DF106050DF1FF3414F8011FA6
:101524000B48FFF741FE40210948FFF701FF01285E
:10153400F9D1AC42F2D14FF40070FEF7EBFF4FF457
:101544008060FEF7E7FFE7E7001402405815000843
:041554000010014042
:0815580068656C6C6F0D0A0060
:101560000000000000000000010203040607080953
:10157000007A030A010000000000000001020304D9
:0815800001020304060708093B
:101588000000000000000000000000000000000053
:101598000000000000000000000000000000000043
:1015A8000000000000000000000000000000000033
:1015B8000000000000000000000000000000000023
:081988003C0400204004002093
:0C1990000000000000000000000000004B
:0400000508000139B5
:00000001FF
