:020000040800F2
:10000000FEE700BF684620F007018D4614481549F9
:10001000814208B509D0144B984206D2C24313441A
:1000200023F00302043201F0EDF81048104B98421F
:1000300007D2C243134423F003020432002101F02B
:1000400089F90C4B0C4A23F0684323F07F0343F0FB
:100050000063936000F066F901F06EF9FEE700BFFF
:1000600000000020F01300082400002024000020DD
:100070005C010020F013000000ED00E00E490F4885
:10008000814208B509D00E4B984206D2C2431A44A9
:1000900022F00302043201F0B5F80A480A4B9842F4
:1000A00009D2C2431A4422F0030204320021BDE8FF
:1000B000084001F04FB908BDF0130008000000200F
:1000C00024000020240000205C01002010B504461C
:1000D0006FF0040000F032FAE008044AC0EB40136D
:1000E00000EB8303DB001070538010BD2400002060
:1000F0000C4B0D4A1B78002100FB03F0506091600F
:10010000136843F0010313601368074903F00113F8
:10011000012BF9D00B68002223F001030B608A60E9
:10012000704700BF2400002010E000E00C4B0D4A97
:100130005B88002100FB03F050609160136843F07E
:10014000010313601368074903F00113012BF9D071
:100150000B68002223F001030B608A60704700BF28
:100160002400002010E000E0214BA3FB00235A0AEA
:100170004FF4077370B494B203FB120296B2DCB171
:100180001C481D4A4588E1B2104603FB05F50024D2
:1001900055609460136843F001031360136803F023
:1001A0000113012BFAD00368013923F0010311F088
:1001B000FF0103608460EBD1BEB10E4B0E4A59883B
:1001C000002306FB01F656609360136843F00103B9
:1001D00013601368084903F00113012BF9D00B6871
:1001E000002223F001030B608A6070BC704700BFDF
:1001F00049D6B9F22400002010E000E0704700BFAB
:1002000003490B88024A5B06FBD5C3B29380704753
:1002100000100140F0B5012189B0274D274E074657
:10022000084600F099FC0121102000F0CDFC284682
:100230000722092100F0CEFA284607220A2100F001
:10024000C9FA00244FF4C0620223284602A90125FE
:1002500002928DF80C308DF80D308DF80E408DF82F
:100260000F5000F025FA0C23304604A9ADF81A30DF
:100270000497ADF81440ADF81640ADF81840ADF84D
:100280001C4000F00DFE2946304600F08FFE2A4645
:10029000304640F2255100F063FF0323252201A8D8
:1002A0008DF807508DF804208DF805308DF8063054
:1002B00000F0F6F809B0F0BD000002400010014067
:1002C00010B540F22551144800F070FF00B910BD80
:1002D000114800F0A3FE114A13881C04C0B2F6D4E2
:1002E00059040DD40D2813D0591C89B2C3F30D0342
:1002F0000B4C1180C729E054E9D90023138010BDAD
:100300000A28FAD16FEA43436FEA5343138010BDC2
:1003100043F48043138010BD0010014028000020EA
:100320002C000020364B37481A68002142F00102A9
:100330001A6099601A6822F0847222F480321A607E
:1003400058601A6882B022F480221A60D960009145
:1003500001911A6842F480321A601A4603E0009B49
:10036000B3F5A04F09D0136803F400330193009B49
:1003700001330093019B002BF1D0214B1B6813F438
:10038000003318BF01230193019B012B05D01E4BA5
:100390004FF000629A6002B07047194B1B491A6C0B
:1003A0001B4842F080521A640A6842F440420A60D4
:1003B0009A689A609A6842F400429A609A6842F495
:1003C000A0529A6058601A6842F080721A601A4609
:1003D00011680B4B8901FBD50E4A40F20571116083
:1003E0009A6822F003029A609A6842F002029A60C8
:1003F0001A46936803F00C03082BFAD1C7E700BF35
:10040000003802401030002400ED00E00070004091
:1004100008544007003C02401848836803F00C036E
:10042000042B28D0082B09D0154B144A1549926883
:10043000C2F303128A5CD3400B6170474368416882
:1004400013F4800F436818BF0F4801F03F020CBF40
:100450000B49B0FBF2F1C3F3881308BFB1FBF2F113
:1004600001FB03F2054B5B68C3F3014301335B00FF
:10047000B2FBF3F3D9E7044BD7E700BF00380240E3
:100480000024F4000000002000127A0040F0BF6059
:10049000024B40F40030D860704700BF00ED00E030
:1004A000C3785BB9037818485A09203203F01F0358
:1004B000012101FA03F340F822307047134BF0B4E6
:1004C000D9684778827804780F4EC943C1F3022176
:1004D000C1F10405EDB20F2307FA05F50B41EDB2AA
:1004E00013402B4304F1604202F561421B01DBB271
:1004F00082F800330378012203F01F015B098A4070
:1005000046F82320F0BC704700E100E000ED00E079
:1005100021F0604121F07F01014B08439860704752
:1005200000ED00E0044A136919B923EA00001061E4
:10053000704718431061704700ED00E0044A1368EB
:1005400004280CBF43F0040323F004031360704736
:1005500010E000E008B54B4B98422AD04A4B984235
:1005600031D04A4B984238D0494B98423FD0494B02
:10057000984246D0484B98424DD0484B984254D070
:10058000474B98425BD0474B984262D0464B9842CB
:100590006BD0464B984200D008BD01214FF48060DB
:1005A00000F020FB00214FF48060BDE8084000F01F
:1005B00019BB0121084600F015FB00210120BDE810
:1005C000084000F00FBB0121022000F00BFB0021CE
:1005D0000220BDE8084000F005BB0121042000F026
:1005E00001FB00210420BDE8084000F0FBBA012116
:1005F000082000F0F7FA00210820BDE8084000F0CC
:10060000F1BA0121102000F0EDFA00211020BDE820
:10061000084000F0E7BA0121202000F0E3FA0021B1
:100620002020BDE8084000F0DDBA0121402000F0A4
:10063000D9FA00214020BDE8084000F0D3BA0121DA
:10064000802000F0CFFA00218020BDE8084000F0B3
:10065000C9BA01214FF4807000F0C4FA00214FF4B0
:100660008070BDE8084000F0BDBA01214FF4007071
:1006700000F0B8FA00214FF40070BDE8084000F027
:10068000B1BA00BF0000024000040240000802406E
:10069000000C02400010024000140240001802400A
:1006A000001C0240002002400024024000280240BA
:1006B00000222DE9F0471346D1F800E001274FF062
:1006C000030C04E00133102B02F1020229D007FAD7
:1006D00003F434EA0E05F5D1D0F800800E790CFA57
:1006E00002F5ED4308EA0508C0F80080D0F8009054
:1006F00006FA02FA013E4AEA0909012E0CFA02F84A
:10070000C0F800900FD9C568CC7925EA0805C56006
:10071000C568944001332C43102BC46002F10202DF
:10072000D5D1BDE8F087866891F8059035408560A1
:1007300086688D7909FA02F949EA060686604668F4
:1007400026EA04044460466805FA03F4A4B234437C
:100750004460D8E700234FF6FF72026003714371D3
:100760008371C371704700BF82B04FF4803301932F
:10077000019B0B430193019BC361C161019BC36159
:10078000C3690193C369019302B0704703691942B9
:1007900014BF012000207047006980B2704700BF7D
:1007A0004369194214BF012000207047406980B29C
:1007B000704700BF01837047418370470AB9418386
:1007C00070470183704700BF4161704743695940DA
:1007D00041617047CB0800EB830001F0070110B4C2
:1007E0008900046A0F238B4024EA03030362036A2F
:1007F00010BC8A4042EA0301016270470F4B104867
:100800001A68002142F0010230B41A6099601A6837
:100810000C4D0D4C22F0A85222F410221A605D609B
:10082000C3F88440C3F888001A6822F480221A6052
:1008300030BCD960C3F88C10704700BF003802404C
:10084000003000241030002400300020024B002231
:100850001A701870704700BF0238024082B000233F
:100860000A4A019302E0B3F5A04F08D0136813F4CD
:10087000003F019B03F101030193019BF3D0034B64
:100880001868C0F3404002B0704700BF0038024013
:10089000034A136823F0F80343EAC000106070476E
:1008A00000380240014B1860704700BF000047420B
:1008B000064B002201281A701A7005D0042802D1B4
:1008C00005221A70704770471870704770380240E0
:1008D000014B1860704700BF800E474230B4029C45
:1008E000064D40EA046001435B08013B41EA821285
:1008F00042EA0340686030BC704700BF00380240E5
:10090000014B1860704700BF600047420907034B66
:1009100041EA8010C3F88400704700BF00380240ED
:10092000014B1860704700BF68004742120742EA57
:100930000161034B41EA8010C3F88800704700BF93
:1009400000380240014B1860704700BF70004742FA
:10095000014B1860704700BF4C004742034A936840
:1009600023F0EC631943084390607047003802405D
:10097000034A936823F07843194308439060704713
:1009800000380240034A936823F003031843906041
:10099000704700BF00380240024B986800F00C001E
:1009A000704700BF00380240034A936823F0F00309
:1009B00018439060704700BF00380240034A9368B4
:1009C00023F4E05318439060704700BF00380240A2
:1009D000034A936823F4604343EAC0009060704781
:1009E0000038024010B4214CA36803F00C03042B20
:1009F0001AD0082B1BD01E4B03601C4A1D4994685B
:100A0000C4F303140C5DE34043609468C4F3822490
:100A10000C5D23FA04F48460926810BCC2F3423285
:100A20008A5CD340C3607047134B0360E5E763689B
:100A3000616813F4800F636818BF0F4C01F03F0228
:100A40000CBF0B49B4FBF2F1C3F3881308BFB1FB31
:100A5000F2F101FB03F2054B5B68C3F30143013381
:100A60005B00B2FBF3F30360C7E700BF003802404E
:100A70000024F4001400002000127A0000F44073F7
:100A8000B3F5407F09D108498B6820F0704223F408
:100A9000F81322F4407213438B60034A136FC0F3C0
:100AA0000B0018431067704700380240014B186074
:100AB000704700BF3C0E4742014B1860704700BFB3
:100AC000400E4742014B1860704700BF5C0147422F
:100AD000044AD2F88C3023F440131843C2F88C0037
:100AE000704700BF00380240044AD2F88C3023F42B
:100AF00040031843C2F88C00704700BF0038024022
:100B0000044AD2F88C30013823F01F030343C2F8A3
:100B10008C30704700380240054AD2F88C300138DA
:100B200023F4F85343EA0023C2F88C30704700BF27
:100B300000380240044AD2F88C3023F44033184382
:100B4000C2F88C00704700BF00380240014B1860AB
:100B5000704700BFE011474229B9054A136B23EAE9
:100B6000000010637047024B1A6B10431863704704
:100B70000038024029B9054A536B23EA000050634C
:100B80007047024B5A6B104358637047003802405D
:100B900029B9054A936B23EA000090637047024B22
:100BA0009A6B1043986370470038024029B9054A90
:100BB000136C23EA000010647047024B1A6C104358
:100BC000186470470038024029B9054A536C23EA7B
:100BD000000050647047024B5A6C104358647047D1
:100BE0000038024029B9054A136923EA0000106160
:100BF0007047024B1A691043186170470038024071
:100C000029B9054A536923EA000050617047024B35
:100C10005A691043586170470038024029B9054AA3
:100C2000936923EA000090617047024B9A69104370
:100C3000986170470038024029B9054A136A23EACF
:100C4000000010627047024B1A6A10431862704726
:100C50000038024029B9054A536A23EA000050626D
:100C60007047024B5A6A104358627047003802407E
:100C700029B9054A136D23EA000010657047024B3D
:100C80001A6D1043186570470038024029B9054AAB
:100C9000536D23EA000050657047024B5A6D1043B4
:100CA000586570470038024029B9054A936D23EA18
:100CB000000090657047024B9A6D1043986570472D
:100CC0000038024029B9054A136E23EA0000106675
:100CD0007047024B1A6E1043186670470038024086
:100CE00029B9054A536E23EA000050667047024B4B
:100CF0005A6E10435866704700380240044A136F1A
:100D000001280CBF43F0080323F008031367704762
:100D10000038024029B9054A137823EA0000107010
:100D20007047024B1A781043187070470D38024014
:100D30004309012B0BD0022B094B0CBF1B6F5B6FC0
:100D400000F01F0023FA00F000F001007047044B90
:100D50001B6800F01F0023FA00F000F0010070474C
:100D600000380240024A536F43F080735367704764
:100D700000380240034BDB68184214BF01200020FA
:100D8000704700BF00380240014B1870704700BF29
:100D90000E38024008B53A4B984221D0394B984260
:100DA00028D0394B984231D0384B98423AD0384B02
:100DB000984243D0374B98424CD0374B984253D04F
:100DC000364B984200D008BD01214FF00040FFF79C
:100DD00033FF00214FF00040BDE80840FFF72CBF73
:100DE00001211020FFF736FF00211020BDE8084048
:100DF000FFF730BF01214FF40030FFF71DFF002146
:100E00004FF40030BDE80840FFF716BF01214FF452
:100E10008020FFF711FF00214FF48020BDE808403B
:100E2000FFF70ABF01214FF40020FFF705FF002163
:100E30004FF40020BDE80840FFF7FEBE01214FF44B
:100E40008010FFF7F9FE00214FF48010BDE8084044
:100E5000FFF7F2BE01212020FFF7FCFE0021202039
:100E6000BDE80840FFF7F6BE01214FF08040FFF7D4
:100E7000E3FE00214FF08040BDE80840FFF7DCBEF4
:100E8000001001400044004000480040004C004079
:100E9000005000400014014000780040007C0040F9
:100EA000028A0B89F0B592B2CF888E88044622F46C
:100EB00040523A4348890D4689892282A2893343A8
:100EC00092B2034322F4B05222F00C029BB21343BD
:100ED000A381A38A9BB223F440730B4385B0A38202
:100EE0006846FFF77FFD1D4B9C4228D003F58063C9
:100EF0009C4224D0029AA389A18913F4004F2B6845
:100F000002EB820214BF5B009B0002EB8202B2FB89
:100F1000F3F0134AA2FB00356D096423090405FBB5
:100F200013034FEA05150CD41B013233A2FB032334
:100F3000C3F343132B439BB2238105B0F0BD039A47
:100F4000D9E7D9003231A2FB0131C1F3421242EAA2
:100F500005039BB2238105B0F0BD00BF0010014026
:100F60001F85EB5100234FF416510C220160428182
:100F70008380C38003818381704700BF30B44A8877
:100F80000D888C88038AC9882A4322430A439BB26E
:100F900092B223F470631343038230BC704700BFE6
:100FA0000023038043808380C3807047838929B9ED
:100FB00023F400531B041B0C838170479BB243F442
:100FC00000538381704700BF038B03F47F43038387
:100FD000038B9BB219430183704700BF838919B902
:100FE000C3F30E03838170476FEA43436FEA5343B1
:100FF0009BB28381704700BF838A29B923F40063C1
:101000001B041B0C838270479BB243F400638382F2
:10101000704700BFC1F30801818070478088C0F32A
:1010200008007047038A23F00F031B041B0C038284
:10103000038A9BB219430182704700BF838929B993
:1010400023F002031B041B0C838170479BB243F007
:1010500002038381704700BF838923F400631B046C
:101060001B0C838183899BB219438181704700BF28
:10107000038A23F020031B041B0C0382038A9BB208
:1010800019430182704700BF038A29B923F48043C2
:101090001B041B0C038270479BB243F48043038202
:1010A000704700BF83899BB243F00103838170477F
:1010B000838A29B923F008031B041B0C8382704721
:1010C0009BB243F008038382704700BF038BDBB2FF
:1010D0000383038B9BB243EA01210183704700BF66
:1010E000838A29B923F020031B041B0C83827047D9
:1010F0009BB243F020038382704700BF838A29B9E3
:1011000023F010031B041B0C838270479BB243F037
:1011100010038382704700BF838A23F004031B04FB
:101120001B0C8382838A9BB219438182704700BF64
:10113000838A29B923F002031B041B0C83827047A6
:101140009BB243F002038382704700BF838A9BB245
:101150001AB923EA010181827047194381827047DD
:1011600010B401F01F04C1F342110123012903FA55
:1011700004F30FD002290CBF103014302AB90268D2
:1011800010BC22EA030303607047026810BC1343DB
:10119000036070470C30F1E70388194214BF012047
:1011A00000207047C94389B201807047C1F34212E1
:1011B00010B4012301F01F04012A03FA04F315D02F
:1011C000022A0CBF028A828A92B21340028892B22B
:1011D0004BB10123090A03FA01F10A4214BF184670
:1011E000002010BC7047184610BC7047828992B22C
:1011F0001340EBE7090A012303FA01F1C94389B25D
:1012000001807047844641EA000313F003036DD167
:10121000403A41D351F8043B40F8043B51F8043BB9
:1012200040F8043B51F8043B40F8043B51F8043BC0
:1012300040F8043B51F8043B40F8043B51F8043BB0
:1012400040F8043B51F8043B40F8043B51F8043BA0
:1012500040F8043B51F8043B40F8043B51F8043B90
:1012600040F8043B51F8043B40F8043B51F8043B80
:1012700040F8043B51F8043B40F8043B51F8043B70
:1012800040F8043B51F8043B40F8043B51F8043B60
:1012900040F8043B403ABDD2303211D351F8043B00
:1012A00040F8043B51F8043B40F8043B51F8043B40
:1012B00040F8043B51F8043B40F8043B103AEDD2AF
:1012C0000C3205D351F8043B40F8043B043AF9D200
:1012D000043208D0D2071CBF11F8013B00F8013BD3
:1012E00001D30B8803806046704700BF082A13D3E0
:1012F0008B078DD010F003038AD0C3F10403D21AF8
:10130000DB071CBF11F8013B00F8013B80D331F82B
:10131000023B20F8023B7BE7043AD9D3013A11F8AB
:10132000013B00F8013BF9D20B7803704B78437016
:101330008B788370604670474FF4E13008B5FEF754
:1013400069FF5420FEF7C2FE4FF47A70FEF70CFFDF
:10135000FAE700BF70B4840746D0541E002A41D07B
:10136000CDB2034602E0621EE4B3144603F8015B0B
:101370009A07F8D1032C2ED9CDB245EA05250F2CBA
:1013800045EA054519D903F110022646103E0F2EF5
:1013900042F8105C42F80C5C42F8085C42F8045CCD
:1013A00002F11002F2D8A4F1100222F00F0204F0B0
:1013B0000F041032032C13440DD91E462246043A62
:1013C000032A46F8045BFAD8221F22F003020432F3
:1013D000134404F003042CB1C9B21C4403F8011BEC
:1013E000A342FBD170BC704714460346C2E700BF5E
:1013F00000000000000000000102030406070809C5
:10140000007A030A00000000010203040102030441
:0414100006070809BA
:0400000508000005EA
:00000001FF
