:020000040800F2
:10000000FEE700BF684620F007018D4614481549F9
:10001000814208B509D0144B984206D2C24313441A
:1000200023F00302043200F0EBFE1048104B98421C
:1000300007D2C243134423F003020432002100F02C
:10004000C9FF0C4B0C4A23F0684323F07F0343F0B5
:100050000063936000F03AF800F06CFFFEE700BF29
:100060000000002070100008240000202400002060
:10007000240000207010000000ED00E00E490F4841
:10008000814208B509D00E4B984206D2C2431A44A9
:1000900022F00302043200F0B3FE0A480A4B9842F1
:1000A00009D2C2431A4422F0030204320021BDE8FF
:1000B000084000F08FBF08BD70100008000000204D
:1000C000240000202400002024000020364B374864
:1000D0001A68002142F001021A6099601A6822F041
:1000E000847222F480321A6058601A6882B022F456
:1000F00080221A60D960009101911A6842F480321E
:100100001A601A4603E0009BB3F5A04F09D01368AC
:1001100003F400330193009B01330093019B002BF8
:10012000F1D0214B1B6813F4003318BF0123019356
:10013000019B012B05D01E4B4FF000629A6002B06C
:100140007047194B1B491A6C1B4842F080521A64C5
:100150000A6842F440420A609A689A609A6842F4D7
:1001600000429A609A6842F4A0529A6058601A68F5
:1001700042F080721A601A4611680B4B8901FBD558
:100180000E4A40F2057111609A6822F003029A60EB
:100190009A6842F002029A601A46936803F00C03D0
:1001A000082BFAD1C7E700BF003802401030002406
:1001B00000ED00E00070004019544007003C024090
:1001C0001848836803F00C03042B28D0082B09D0AF
:1001D000154B144A15499268C2F303128A5CD34046
:1001E0000B6170474368416813F4800F436818BF80
:1001F0000F4801F03F020CBF0B49B0FBF2F1C3F313
:10020000881308BFB1FBF2F101FB03F2054B5B68F9
:10021000C3F3014301335B00B2FBF3F3D9E7044BB3
:10022000D7E700BF003802400024F400000000209F
:1002300040787D0108B54B4B98422AD04A4B9842F2
:1002400031D04A4B984238D0494B98423FD0494B25
:10025000984246D0484B98424DD0484B984254D093
:10026000474B98425BD0474B984262D0464B9842EE
:100270006BD0464B984200D008BD01214FF48060FE
:1002800000F020FB00214FF48060BDE8084000F042
:1002900019BB0121084600F015FB00210120BDE833
:1002A000084000F00FBB0121022000F00BFB0021F1
:1002B0000220BDE8084000F005BB0121042000F049
:1002C00001FB00210420BDE8084000F0FBBA012139
:1002D000082000F0F7FA00210820BDE8084000F0EF
:1002E000F1BA0121102000F0EDFA00211020BDE844
:1002F000084000F0E7BA0121202000F0E3FA0021D5
:100300002020BDE8084000F0DDBA0121402000F0C7
:10031000D9FA00214020BDE8084000F0D3BA0121FD
:10032000802000F0CFFA00218020BDE8084000F0D6
:10033000C9BA01214FF4807000F0C4FA00214FF4D3
:100340008070BDE8084000F0BDBA01214FF4007094
:1003500000F0B8FA00214FF40070BDE8084000F04A
:10036000B1BA00BF00000240000402400008024091
:10037000000C02400010024000140240001802402D
:10038000001C0240002002400024024000280240DD
:1003900000222DE9F0471346D1F800E001274FF085
:1003A000030C04E00133102B02F1020229D007FAFA
:1003B00003F434EA0E05F5D1D0F800800E790CFA7A
:1003C00002F5ED4308EA0508C0F80080D0F8009077
:1003D00006FA02FA013E4AEA0909012E0CFA02F86D
:1003E000C0F800900FD9C568CC7925EA0805C5602A
:1003F000C568944001332C43102BC46002F1020203
:10040000D5D1BDE8F087866891F8059035408560C4
:1004100086688D7909FA02F949EA06068660466817
:1004200026EA04044460466805FA03F4A4B234439F
:100430004460D8E700234FF6FF72026003714371F6
:100440008371C371704700BF82B04FF48033019352
:10045000019B0B430193019BC361C161019BC3617C
:10046000C3690193C369019302B0704703691942DC
:1004700014BF012000207047006980B2704700BFA0
:100480004369194214BF012000207047406980B2BF
:10049000704700BF01837047418370470AB94183A9
:1004A00070470183704700BF4161704743695940FD
:1004B00041617047CB0800EB830001F0070110B4E5
:1004C0008900046A0F238B4024EA03030362036A52
:1004D00010BC8A4042EA0301016270470F4B10488A
:1004E0001A68002142F0010230B41A6099601A685B
:1004F0000C4D0D4C22F0A85222F410221A605D60BF
:10050000C3F88440C3F888001A6822F480221A6075
:1005100030BCD960C3F88C10704700BF003802406F
:10052000003000241030002400300020024B002254
:100530001A701870704700BF0238024082B0002362
:100540000A4A019302E0B3F5A04F08D0136813F4F0
:10055000003F019B03F101030193019BF3D0034B87
:100560001868C0F3404002B0704700BF0038024036
:10057000034A136823F0F80343EAC0001060704791
:1005800000380240014B1860704700BF000047422E
:10059000064B002201281A701A7005D0042802D1D7
:1005A00005221A7070477047187070477038024003
:1005B000014B1860704700BF800E474230B4029C68
:1005C000064D40EA046001435B08013B41EA8212A8
:1005D00042EA0340686030BC704700BF0038024008
:1005E000014B1860704700BF600047420907034B8A
:1005F00041EA8010C3F88400704700BF0038024011
:10060000014B1860704700BF68004742120742EA7A
:100610000161034B41EA8010C3F88800704700BFB6
:1006200000380240014B1860704700BF700047421D
:10063000014B1860704700BF4C004742034A936863
:1006400023F0EC6319430843906070470038024080
:10065000034A936823F07843194308439060704736
:1006600000380240034A936823F003031843906064
:10067000704700BF00380240024B986800F00C0041
:10068000704700BF00380240034A936823F0F0032C
:1006900018439060704700BF00380240034A9368D7
:1006A00023F4E05318439060704700BF00380240C5
:1006B000034A936823F4604343EAC00090607047A4
:1006C0000038024010B4214CA36803F00C03042B43
:1006D0001AD0082B1BD01E4B03601C4A1D4994687E
:1006E000C4F303140C5DE34043609468C4F38224B4
:1006F0000C5D23FA04F48460926810BCC2F34232A9
:100700008A5CD340C3607047134B0360E5E76368BE
:10071000616813F4800F636818BF0F4C01F03F024B
:100720000CBF0B49B4FBF2F1C3F3881308BFB1FB54
:10073000F2F101FB03F2054B5B68C3F301430133A4
:100740005B00B2FBF3F30360C7E700BF0038024071
:100750000024F4001400002040787D0100F4407370
:10076000B3F5407F09D108498B6820F0704223F42B
:10077000F81322F4407213438B60034A136FC0F3E3
:100780000B0018431067704700380240014B186097
:10079000704700BF3C0E4742014B1860704700BFD6
:1007A000400E4742014B1860704700BF5C01474252
:1007B000044AD2F88C3023F440131843C2F88C005A
:1007C000704700BF00380240044AD2F88C3023F44E
:1007D00040031843C2F88C00704700BF0038024045
:1007E000044AD2F88C30013823F01F030343C2F8C7
:1007F0008C30704700380240054AD2F88C300138FE
:1008000023F4F85343EA0023C2F88C30704700BF4A
:1008100000380240044AD2F88C3023F440331843A5
:10082000C2F88C00704700BF00380240014B1860CE
:10083000704700BFE011474229B9054A136B23EA0C
:10084000000010637047024B1A6B10431863704727
:100850000038024029B9054A536B23EA000050636F
:100860007047024B5A6B1043586370470038024080
:1008700029B9054A936B23EA000090637047024B45
:100880009A6B1043986370470038024029B9054AB3
:10089000136C23EA000010647047024B1A6C10437B
:1008A000186470470038024029B9054A536C23EA9E
:1008B000000050647047024B5A6C104358647047F4
:1008C0000038024029B9054A136923EA0000106183
:1008D0007047024B1A691043186170470038024094
:1008E00029B9054A536923EA000050617047024B59
:1008F0005A691043586170470038024029B9054AC7
:10090000936923EA000090617047024B9A69104393
:10091000986170470038024029B9054A136A23EAF2
:10092000000010627047024B1A6A10431862704749
:100930000038024029B9054A536A23EA0000506290
:100940007047024B5A6A10435862704700380240A1
:1009500029B9054A136D23EA000010657047024B60
:100960001A6D1043186570470038024029B9054ACE
:10097000536D23EA000050657047024B5A6D1043D7
:10098000586570470038024029B9054A936D23EA3B
:10099000000090657047024B9A6D10439865704750
:1009A0000038024029B9054A136E23EA0000106698
:1009B0007047024B1A6E10431866704700380240A9
:1009C00029B9054A536E23EA000050667047024B6E
:1009D0005A6E10435866704700380240044A136F3D
:1009E00001280CBF43F0080323F008031367704786
:1009F0000038024029B9054A137823EA0000107034
:100A00007047024B1A781043187070470D38024037
:100A10004309012B0BD0022B094B0CBF1B6F5B6FE3
:100A200000F01F0023FA00F000F001007047044BB3
:100A30001B6800F01F0023FA00F000F0010070476F
:100A400000380240024A536F43F080735367704787
:100A500000380240034BDB68184214BF012000201D
:100A6000704700BF00380240014B1870704700BF4C
:100A70000E3802404FF0FF0C1CEAD0521EBF1CEA99
:100A8000D15392EA0C0F93EA0C0F6FD01A4480EA0C
:100A9000010C400218BF5FEA41211ED04FF00063F5
:100AA00043EA501043EA5111A0FB01310CF0004021
:100AB000B1F5000F3EBF490041EAD3715B0040EA47
:100AC000010062F17F02FD2A1DD8B3F1004F40EB17
:100AD000C25008BF20F00100704790F0000F0CF0EA
:100AE000004C08BF49024CEA502040EA51207F3AAE
:100AF000C2BFD2F1FF0340EAC250704740F4000089
:100B00004FF00003013A5DDC12F1190FDCBF00F079
:100B100000407047C2F10002410021FA02F1C2F127
:100B2000200200FA02FC5FEA310040F1000053EAC3
:100B30004C0308BF20EADC70704792F0000F00F011
:100B4000004C02BF400010F4000F013AF9D040EA17
:100B50000C0093F0000F01F0004C02BF490011F4AB
:100B6000000F013BF9D041EA0C018FE70CEAD153A9
:100B700092EA0C0F18BF93EA0C0F0AD030F0004C29
:100B800018BF31F0004CD8D180EA010000F00040DD
:100B9000704790F0000F17BF90F0004F084691F09B
:100BA000000F91F0004F14D092EA0C0F01D14202D5
:100BB0000FD193EA0C0F03D14B0218BF084608D19E
:100BC00080EA010000F0004040F0FE4040F40000E8
:100BD000704740F0FE4040F4400070474FF0FF0C7B
:100BE0001CEAD0521EBF1CEAD15392EA0C0F93EAC2
:100BF0000C0F69D0A2EB030280EA010C49024FEA14
:100C0000402037D04FF0805343EA111143EA1013CC
:100C10000CF000408B4238BF5B0042F17D024FF484
:100C2000000C8B4224BF5B1A40EA0C00B3EB510F5F
:100C300024BFA3EB510340EA5C00B3EB910F24BF48
:100C4000A3EB910340EA9C00B3EBD10F24BFA3EBCD
:100C5000D10340EADC001B0118BF5FEA1C1CE0D195
:100C6000FD2A3FF650AF8B4240EBC25008BF20F048
:100C7000010070470CF0004C4CEA50207F32C2BF9C
:100C8000D2F1FF0340EAC250704740F400004FF039
:100C90000003013A37E792F0000F00F0004C02BF6A
:100CA000400010F4000F013AF9D040EA0C0093F034
:100CB000000F01F0004C02BF490011F4000F013B8E
:100CC000F9D041EA0C0195E70CEAD15392EA0C0FF6
:100CD00008D142027FF47DAF93EA0C0F7FF470AF2E
:100CE000084676E793EA0C0F04D14B023FF44CAF71
:100CF00008466EE730F0004C18BF31F0004CCAD106
:100D000030F000427FF45CAF31F000437FF43CAF41
:100D10005FE700BF4FF0FF3C06E000BF4FF0010C63
:100D200002E000BF4FF0010C4DF804CD4FEA400245
:100D30004FEA41037FEA226C18BF7FEA236C11D08F
:100D400001B052EA530C18BF90EA010F58BFB2EB42
:100D5000030088BFC81738BF6FEAE17018BF40F0C2
:100D6000010070477FEA226C02D15FEA402C05D176
:100D70007FEA236CE4D15FEA412CE1D05DF8040BFB
:100D8000704700BF844608466146FFE70FB5FFF78E
:100D9000C9FF002848BF10F1000F0FBD4DF808ED46
:100DA000FFF7F4FF0CBF012000205DF808FB00BF37
:100DB0004DF808EDFFF7EAFF34BF012000205DF891
:100DC00008FB00BF4DF808EDFFF7E0FF94BF0120DE
:100DD00000205DF808FB00BF4DF808EDFFF7D2FFDB
:100DE00094BF012000205DF808FB00BF4DF808ED1E
:100DF000FFF7C8FF34BF012000205DF808FB00BFEB
:100E0000844641EA000313F003036DD1403A41D315
:100E100051F8043B40F8043B51F8043B40F8043BD4
:100E200051F8043B40F8043B51F8043B40F8043BC4
:100E300051F8043B40F8043B51F8043B40F8043BB4
:100E400051F8043B40F8043B51F8043B40F8043BA4
:100E500051F8043B40F8043B51F8043B40F8043B94
:100E600051F8043B40F8043B51F8043B40F8043B84
:100E700051F8043B40F8043B51F8043B40F8043B74
:100E800051F8043B40F8043B51F8043B40F8043B64
:100E9000403ABDD2303211D351F8043B40F8043B04
:100EA00051F8043B40F8043B51F8043B40F8043B44
:100EB00051F8043B40F8043B103AEDD20C3205D314
:100EC00051F8043B40F8043B043AF9D2043208D00C
:100ED000D2071CBF11F8013B00F8013B01D30B887E
:100EE00003806046704700BF082A13D38B078DD05C
:100EF00010F003038AD0C3F10403D21ADB071CBF2E
:100F000011F8013B00F8013B80D331F8023B20F897
:100F1000023B7BE7043AD9D3013A11F8013B00F8D0
:100F2000013BF9D20B7803704B7843708B78837058
:100F30006046704730B5012183B02020FFF77CFC6C
:100F40004FF4C0640123032269461E480094002523
:100F50008DF804308DF807308DF806508DF8052097
:100F6000FFF716FA21461748FFF794FA4FF400717D
:100F70001448154CFFF790FA4FF480611148FFF7C1
:100F800089FA20461149FFF729FE11490446FFF767
:100F90002DFF0028F5D14FF400710A480A4CFFF7E5
:100FA00079FA4FF480610748FFF776FA204607493F
:100FB000FFF714FE06490446FFF718FF0028F5D195
:100FC000D4E700BF00140240000048424703803FBE
:100FD00017B7D13870B4840746D0541E002A41D0C8
:100FE000CDB2034602E0621EE4B3144603F8015B8F
:100FF0009A07F8D1032C2ED9CDB245EA05250F2C3E
:1010000045EA054519D903F110022646103E0F2E78
:1010100042F8105C42F80C5C42F8085C42F8045C50
:1010200002F11002F2D8A4F1100222F00F0204F033
:101030000F041032032C13440DD91E462246043AE5
:10104000032A46F8045BFAD8221F22F00302043276
:10105000134404F003042CB1C9B21C4403F8011B6F
:10106000A342FBD170BC704714460346C2E700BFE1
:101070000000000000000000010203040607080948
:10108000007A030A000000000102030401020304C5
:04109000060708093E
:0400000508000005EA
:00000001FF
